:100000000C9446000C9465000C9465000C946500FB
:100010000C9465000C9465000C9465000C946500CC
:100020000C9465000C9465000C9465000C94BA2A3D
:100030000C9465000C9465000C940A2B0C946500DC
:100040000C94725C0C9465000C9465000C94650033
:100050000C9465000C9465000C9465000C9465008C
:100060000C9465000C9465000C9465000C9465007C
:100070000C9465000C9465000C9465000C9465006C
:100080000C9465000C9465000C94650011241FBE4F
:10009000CFEFD0E1DEBFCDBF13E0A0E0B1E0E0E202
:1000A000F5EC00E00BBF02C007900D92AE37B10730
:1000B000D9F713E0AEE7B3E001C01D92A53EB1074A
:1000C000E1F70E94BE5C0C948E620C940000EF92EB
:1000D000FF920F93DF93CF93CDB7DEB760970FB644
:1000E000F894DEBF0FBECDBFA82F002309F461C076
:1000F0007E010894E11CF11C88E0F70111928A95B9
:10010000E9F729833A834B835C836D837E83AF83D6
:10011000988780E2801BE82FFF27E7FDF095498153
:100120005A816B817C81181684F019861A861B8689
:100130001C86882799278E1B9F0B04C0440F551FD0
:10014000661F771F8A95D2F728C0202F332727FDF7
:100150003095DB01CA01022E04C0880F991FAA1F27
:10016000BB1F0A94D2F789879A87AB87BC8704C0E4
:100170007695679557954795EA95D2F78D819E813B
:10018000AF81B88504C0880F991FAA1FBB1F2A958D
:10019000D2F7482B592B6A2B7B2B4D875E876F87B5
:1001A000788B29853A854B855C856D857E85AF8505
:1001B00098898A2F60960FB6F894DEBF0FBECDBF28
:1001C000CF91DF910F91FF90EF900895EF92FF9202
:1001D0000F931F937B018C0120E030E040E05FE44F
:1001E0000E94771188238CF0C801B70120E030E02D
:1001F00040E05FE40E94430F0E94D7119B01AC01D5
:10020000205030404040504806C0C801B7010E940D
:10021000D7119B01AC01B901CA011F910F91FF9049
:10022000EF900895AEE5B0E0E8E1F1E00C9457629C
:10023000A8E04E010894811C911CF4016A2E1192D1
:100240006A94E9F729833A834B835C836D837E83C9
:100250008F839887CE010996FC011192AA95E9F740
:10026000A986BA86CB86DC86ED86FE860F87188B3C
:1002700029843A844B845C84ED84FE840F8518893C
:1002800069807A808B809C806DA67EA68FA698AAB6
:100290006D807E808F809884E114F1040105110542
:1002A00009F0B3C3621473048404950408F03DC1DB
:1002B00000E0201600E0300601E0400600E05006B5
:1002C00088F41FEF211631044104510439F030F055
:1002D00048E0E42EF12C012D112D18C0EE24FF244E
:1002E000870114C020E0221620E0320620E04206FA
:1002F00021E0520630F038E1E32EF12C012D112DD2
:1003000005C020E1E22EF12C012D112DD201C101F9
:100310000E2C04C0B695A795979587950A94D2F7A9
:1003200086589D4FDC012C9180E290E0A0E0B0E087
:100330008E199F09A00BB10B7C018D01E21AF10807
:1003400001091109E114F10401051105A1F10E2CB7
:1003500004C0220C331C441C551C0A94D2F7A4017F
:1003600093010E2C04C0220F331F441F551F0A9403
:10037000D2F780E290E08E199F096DA47EA48FA42D
:1003800098A804C096948794779467948A95D2F736
:10039000622A732A842A952AADA4BEA4CFA4D8A821
:1003A00004C0AA0CBB1CCC1CDD1CEA94D2F7ADA681
:1003B000BEA6CFA6D8AA6201EE24FF24CDAADEAA4B
:1003C000EFAAF8AE920181012070307009AF1AAF28
:1003D0002BAF3CAFC401B301A70196010E94166286
:1003E0007B018C01C401B3012DA93EA94FA958ADD1
:1003F0000E941662C901DA013C014D01C401B3013A
:1004000029AD3AAD4BAD5CAD0E9438629B01AC01A9
:100410008701FF24EE24ADA4BEA4CFA4D8A8C601B2
:10042000AA27BB2757016801A82AB92ACA2ADB2AAA
:10043000A216B306C406D506E0F408946108710854
:1004400081089108A20CB31CC41CD51CA214B304CF
:10045000C404D50470F0A216B306C406D50648F449
:1004600008946108710881089108A20CB31CC41C8F
:10047000D51CA21AB30AC40AD50AC601B5012DA912
:100480003EA94FA958AD0E9416627B018C01C6019E
:10049000B5012DA93EA94FA958AD0E941662C90108
:1004A000DA015C016D01C601B50129AD3AAD4BAD74
:1004B0005CAD0E9438629B01AC018701FF24EE24F1
:1004C0008DA59EA5AFA5B8A9A070B070E82AF92A9D
:1004D0000A2B1B2BE216F30604071507C0F4089439
:1004E000A108B108C108D108E20CF31C041D151DB8
:1004F000E214F3040405150550F0E216F3060407B0
:10050000150728F40894A108B108C108D108D3013F
:100510009927882786017501E82AF92A0A2B1B2BBF
:10052000E9AAFAAA0BAB1CABCFC4211431044104D5
:10053000510471F461E070E080E090E020E030E090
:1005400040E050E00E941662C901DA011C012D0151
:1005500000E0201600E0300601E0400600E0500612
:1005600088F41FEF211631044104510431F028F0C2
:1005700048E050E060E070E017C040E050E060E02C
:1005800070E012C020E0221620E0320620E0420691
:1005900021E0520628F048E150E060E070E004C03D
:1005A00040E150E060E070E0D201C101042E04C0DF
:1005B000B695A795979587950A94D2F786589D4F3B
:1005C000DC012C91E0E2EE2EF12C012D112DD80151
:1005D000C701841B950BA60BB70B821B9109A109C0
:1005E000B1090097A105B10561F464015301A21896
:1005F000B308C408D50831E0632E712C812C912CEE
:100600001EC16F968FAF6F97082E04C0220C331C4B
:10061000441C551C0A94D2F7EE2DE81B64015301CB
:100620000E2E04C0D694C794B794A7940A94D2F718
:10063000A40193016F960FAC6F9704C0220F331F74
:10064000441F551F0A94D2F76DA47EA48FA498A8C6
:100650000E2E04C096948794779467940A94D2F7E8
:1006600084017301E22AF32A042B152BE9A6FAA6CA
:100670000BA71CA7320188249924920181012070C4
:10068000307021960CAF1DAF2EAF3FAF2197C60142
:10069000B501A40193010E9416627B018C01C60181
:1006A000B501A40193010E941662C901DA012596E1
:1006B0008CAF9DAFAEAFBFAF2597BC01CD012196EA
:1006C0002CAD3DAD4EAD5FAD21970E9438629B01D0
:1006D000AC018701FF24EE24A9A4BAA4CBA4DCA416
:1006E000C601AA27BB275C016D01AE28BF28C02A1E
:1006F000D12AA216B306C406D50660F525966CADC0
:100700007DAD8EAD9FAD259761507040804090408B
:1007100025966CAF7DAF8EAF9FAF2597A20CB31C13
:10072000C41CD51CA214B304C404D50498F0A216AA
:10073000B306C406D50670F4615070408040904006
:1007400025966CAF7DAF8EAF9FAF2597A20CB31CE3
:10075000C41CD51CA21AB30AC40AD50AC601B50125
:10076000A40193010E9416627B018C01C601B501B0
:10077000A40193010E941662C901DA013C014D01F6
:10078000C401B30121962CAD3DAD4EAD5FAD2197B7
:100790000E9438629B01AC018701FF24EE2489A5E9
:1007A0009AA5ABA5BCA5A070B07057016801A82A96
:1007B000B92ACA2ADB2AA216B306C406D506E0F473
:1007C00008946108710881089108A20CB31CC41C2C
:1007D000D51CA214B304C404D50470F0A216B30649
:1007E000C406D50648F40894610871088108910888
:1007F000A20CB31CC41CD51C8DA59EA5AFA5B8A981
:100800006F960FAC6F9704C0880F991FAA1FBB1F6C
:100810000A94D2F78DA79EA7AFA7B8ABA21AB30AC6
:10082000C40AD50A2596ECACFDAC0EAD1FAD2597DC
:10083000D70199278827682A792A8A2A9B2A820140
:100840002227332729960CAF1DAF2EAF3FAF299734
:10085000A2019101407050702D962CAF3DAF4EAF6C
:100860005FAF2D97C601B50129962CAD3DAD4EADBC
:100870005FAD29970E9416627B018C01C601B5010C
:1008800029962CAD3DAD4EAD5FAD29970E94166205
:10089000C901DA0161968CAF9DAFAEAFBFAF619772
:1008A000BC01CD012D962CAD3DAD4EAD5FAD2D976C
:1008B0000E9438629B01AC018701FF24EE24ADA4A5
:1008C000BEA4CFA4D8A8C601AA27BB275701680198
:1008D000A82AB92ACA2ADB2AA216B306C406D50654
:1008E00060F561966CAD7DAD8EAD9FAD6197615049
:1008F00070408040904061966CAF7DAF8EAF9FAFEF
:100900006197A20CB31CC41CD51CA214B304C4046C
:10091000D50498F0A216B306C406D50670F461504B
:1009200070408040904061966CAF7DAF8EAF9FAFBE
:100930006197A20CB31CC41CD51CA21AB30AC40A2A
:10094000D50AC601B50129962CAD3DAD4EAD5FADC2
:1009500029970E9416627B018C01C601B501299678
:100960002CAD3DAD4EAD5FAD29970E941662C90119
:10097000DA015C016D01C601B5012D962CAD3DADCE
:100980004EAD5FAD2D970E9438629B01AC0187018F
:10099000FF24EE248DA59EA5AFA5B8A9A070B070C8
:1009A000E82AF92A0A2B1B2BE216F306040715077F
:1009B000C0F40894A108B108C108D108E20CF31CE6
:1009C000041D151DE214F3040405150550F0E2168C
:1009D000F3060407150728F40894A108B108C10814
:1009E000D1086196ECACFDAC0EAD1FAD6197D7019F
:1009F0009927882796018501082B192B2A2B3B2B39
:100A000009AB1AAB2BAB3CAB62C26E147F04800601
:100A1000910608F451C220E0E21620E0F20621E03F
:100A2000020720E0120788F43FEFE316F104010506
:100A3000110531F028F048E050E060E070E017C0A8
:100A400040E050E060E070E012C040E0E41640E0BA
:100A5000F40640E0040741E0140728F048E150E0C4
:100A600060E070E004C040E150E060E070E0D80178
:100A7000C701042E04C0B695A795979587950A944B
:100A8000D2F786589D4FDC012C9130E2A32EB12C79
:100A9000C12CD12CD601C501841B950BA60BB70B1D
:100AA000821B9109A109B1090097A105B10589F43B
:100AB000E614F7040805190508F4F2C16DA47EA434
:100AC0008FA498A8621473048404950408F0E8C104
:100AD000F3C16E968FAF6E97082E04C0EE0CFF1C0C
:100AE000001F111F0A94D2F76A2D681BD201C101A1
:100AF000062E04C0B695A795979587950A94D2F7C8
:100B00005C016D01AE28BF28C02AD12AADA2BEA2C9
:100B1000CFA2D8A6720161016E960FAC6E9704C089
:100B2000CC0CDD1CEE1CFF1C0A94D2F7C9A2DAA281
:100B3000EBA2FCA264015301062E04C0D694C79414
:100B4000B794A7940A94D2F7D401C3016E960FAC60
:100B50006E9704C0880F991FAA1FBB1F0A94D2F773
:100B6000EDA4FEA40FA518A904C016950795F79447
:100B7000E7946A95D2F737014801682A792A8A2AC8
:100B80009B2A6D8E7E8E8F8E98A2EDA0FEA00FA167
:100B900018A53801882499249801870120703070A5
:100BA00065960CAF1DAF2EAF3FAF6597C601B5017F
:100BB000A40193010E9416627B018C01C601B5015C
:100BC000A40193010E941662C901DA011C012D01E2
:100BD000C201B10165962CAD3DAD4EAD5FAD6597DF
:100BE0000E9438629B01AC018701FF24EE24AD8C8A
:100BF000BE8CCF8CD8A0C601AA27BB27570168019D
:100C0000A82AB92ACA2ADB2AA216B306C406D50620
:100C100000F508942108310841085108EDA0FEA014
:100C20000FA118A5AE0CBF1CC01ED11EAE14BF0470
:100C3000C006D10670F0A216B306C406D50648F465
:100C400008942108310841085108AE0CBF1CC01E91
:100C5000D11EA21AB30AC40AD50AC601B501A4015D
:100C600093010E9416627B018C01C601B501A401AB
:100C700093010E941662C901DA013C014D01C401D1
:100C8000B30165962CAD3DAD4EAD5FAD65970E944D
:100C900038629B01AC018701FF24EE248D8D9E8D6F
:100CA000AF8DB8A1A070B07057016801A82AB92A09
:100CB000CA2ADB2AA216B306C406D50600F5089494
:100CC00061087108810891086DA17EA18FA198A586
:100CD000A60EB71EC81ED91EA616B706C806D90688
:100CE00070F0A216B306C406D50648F4089461084D
:100CF000710881089108A60EB71EC81ED91ED6011C
:100D0000C501821B930BA40BB50B898F9A8FAB8FF8
:100D1000BC8FD1019927882764015301A82AB92AD9
:100D2000CA2ADB2AA9AABAAACBAADCAA860175011B
:100D30002FEF3FEF40E050E0E222F322042315239F
:100D4000A601662777276D964CAF5DAF6EAF7FAF7C
:100D50006D97A9A0BAA0CBA0DCA06FEF7FEF80E0D9
:100D600090E0A622B722C822D92289A19AA1ABA1DC
:100D7000BCA11D0144245524C801B701A601950159
:100D80000E94386269966CAF7DAF8EAF9FAF699756
:100D9000C801B701A20191010E9438623B014C01D8
:100DA0006D966CAD7DAD8EAD9FAD6D97A601950135
:100DB0000E9438627B018C016D966CAD7DAD8EAD6D
:100DC0009FAD6D97A20191010E9438625B016C0199
:100DD000A8019701260D371D481D591D69966CAC59
:100DE0007DAC8EAC9FAC6997C401AA27BB27280FA6
:100DF000391F4A1F5B1F2E153F054007510748F456
:100E0000E12CF12C61E0062F112DAE0CBF1CC01E91
:100E1000D11ECA01AA27BB27BC01CD016A0D7B1DCB
:100E20008C1D9D1D698C7A8C8B8C9C8C661677062C
:100E30008806990640F1661577058805990509F039
:100E400043C0D9019927882769962CAD3DAD4EAD99
:100E50005FAD699740705070820F931FA41FB51F3C
:100E60002DA53EA54FA558A96E960FAC6E9704C050
:100E7000220F331F441F551F0A94D2F72817390732
:100E80004A075B0708F509A91AA92BA93CA9015033
:100E900010402040304009AB1AAB2BAB3CAB14C028
:100EA00066247724430121E030E040E050E029ABA4
:100EB0003AAB4BAB5CAB0BC066247724430119AA59
:100EC0001AAA1BAA1CAA03C0662477244301FE01A8
:100ED000719688E0DF011D928A95E9F7A9A8BAA862
:100EE000CBA8DCA8A98ABA8ACB8ADC8A6D8A7E8ADA
:100EF0008F8A988E29A93A894B895C89662D7E89CB
:100F00008F89988DC25ADF4FE2E10C947362ABE592
:100F1000B0E0EDE8F7E00C945762A8E04E010894C9
:100F2000811C911CF4016A2E11926A94E9F72983BD
:100F30003A834B835C836D837E838F839887CE0156
:100F40000996FC011192AA95E9F7A986BA86CB8683
:100F5000DC86ED86FE860F87188B29843A844B84C5
:100F60005C84AD84BE84CF84D88829813A814B814A
:100F70005C8169962FAF69976A963FAF6A976B96C7
:100F80004FAF6B976C965FAF6C976C966CAC7DAC0B
:100F90008EAC9FAC6C9769AA7AAA8BAA9CAA6D8129
:100FA0007E818F8198853B014C016DAA7EAA8FAA14
:100FB00098AEA114B104C104D10409F004C36214B1
:100FC00073048404950408F000C100E0201600E0DA
:100FD000300601E0400600E0500688F41FEF2116BD
:100FE00031044104510439F030F088E0E82EF12C4E
:100FF000012D112D18C0EE24FF24870114C040E0FC
:10100000241640E0340640E0440641E0540630F047
:10101000B8E1EB2EF12C012D112D05C0A0E1EA2E37
:10102000F12C012D112DD201C1010E2C04C0B69559
:10103000A795979587950A94D2F786589D4FDC011E
:101040002C9180E290E0A0E0B0E08E199F09A00B07
:10105000B10B5C016D01A21AB108C108D108A9AE9B
:10106000BAAECBAEDCAEA114B104C104D10409F414
:101070003FC069AD062E04C0220C331C441C551C15
:101080000A94D2F7A4019301062E04C0220F331F45
:10109000441F551F0A94D2F780E290E08A199B09F9
:1010A0006C96CCACDDACEEACFFAC6C9704C0F694A7
:1010B000E794D794C7948A95D2F787017601E22AFC
:1010C000F32A042B152BEDAAFEAA0FAB18AF6C96D2
:1010D0008CAD9DADAEADBFAD6C9704C0880F991FB0
:1010E000AA1FBB1F6A95D2F789AB9AABABABBCAB5F
:1010F000320188249924B201A10160707070219698
:101100004CAF5DAF6EAF7FAF21976DA97EA98FA960
:1011100098ADA40193010E9416627B018C016DA918
:101120007EA98FA998ADA40193010E941662CA01FD
:10113000B90121962CAD3DAD4EAD5FAD21970E941A
:1011400038629B01AC018701FF24EE24A9A8BAA84C
:10115000CBA8DCA8C601AA27BB2757016801A82A8B
:10116000B92ACA2ADB2AA216B306C406D50690F409
:10117000A20CB31CC41CD51CA214B304C404D50413
:1011800048F0A216B306C406D50620F4A20CB31C80
:10119000C41CD51CA21AB30AC40AD50AC601B501DB
:1011A000A40193010E9416627B018C01C601B50166
:1011B000A40193010E941662CA01B90121962CADC7
:1011C0003DAD4EAD5FAD2197BAC12114310441044C
:1011D000510471F461E070E080E090E020E030E0E4
:1011E00040E050E00E941662C901DA011C012D01A5
:1011F00000E0201600E0300601E0400600E0500666
:1012000088F41FEF211631044104510439F030F005
:1012100068E0E62EF12C012D112D18C0EE24FF24DC
:10122000870114C040E0241640E0340640E0440644
:1012300041E0540630F058E1E52EF12C012D112D3E
:1012400005C040E1E42EF12C012D112DD201C10188
:101250000E2C04C0B695A795979587950A94D2F75A
:1012600086589D4FDC012C9130E2A32EB12CC12C6D
:10127000D12CD601C5018E199F09A00BB10B7C01A1
:101280008D01E21AF10801091109E9AEFAAE0BAFBE
:101290001CAFE114F1040105110539F46401530197
:1012A000A218B308C408D508E2C0F9AC6896FFAE2E
:1012B00068970F2C04C0220C331C441C551C0A9444
:1012C000D2F78A2D8F1964015301082E04C0D694D9
:1012D000C794B794A7940A94D2F7A401930104C0C9
:1012E000220F331F441F551FFA94D2F76C966CAC33
:1012F0007DAC8EAC9FAC6C9704C096948794779429
:1013000067948A95D2F784017301E22AF32A042BA9
:10131000152BEDA6FEA60FA718AB32018824992441
:10132000B201A1016070707025964CAF5DAF6EAFD9
:101330007FAF2597C601B501A40193010E941662F3
:101340007B018C01C601B501A40193010E941662C4
:10135000CA01B90125962CAD3DAD4EAD5FAD2597C7
:101360000E9438629B01AC018701FF24EE24ADA4EA
:10137000BEA4CFA4D8A8C601AA27BB275C016D01D3
:10138000AE28BF28C02AD12AA216B306C406D506A5
:1013900090F4A20CB31CC41CD51CA214B304C40446
:1013A000D50448F0A216B306C406D50620F4A20C54
:1013B000B31CC41CD51CA21AB30AC40AD50AC601A0
:1013C000B501A40193010E9416627B018C01C60144
:1013D000B501A40193010E941662CA01B9012596C4
:1013E0002CAD3DAD4EAD5FAD25970E9438629B019F
:1013F000AC018701FF24EE248DA59EA5AFA5B8A959
:10140000A070B07057016801A82AB92ACA2ADB2A3D
:10141000A216B306C406D50690F4A20CB31CC41CD5
:10142000D51CA214B304C404D50448F0A216B30614
:10143000C406D50620F4A20CB31CC41CD51C6C96A3
:10144000ECACFDAC0EAD1FAD6C9768960FAC689719
:1014500004C0EE0CFF1C001F111F0A94D2F7E9AA6A
:10146000FAAA0BAB1CABA21AB30AC40AD50A320102
:1014700088249924B201A1016070707029964CAF44
:101480005DAF6EAF7FAF2997C601B501A40193018F
:101490000E9416627B018C01C601B501A401930173
:1014A0000E941662CA01B90129962CAD3DAD4EAD20
:1014B0005FAD29970E9438629B01AC018701FF2430
:1014C000EE24A9A8BAA8CBA8DCA8C601AA27BB27E6
:1014D00057016801A82AB92ACA2ADB2AA216B3062C
:1014E000C406D50690F4A20CB31CC41CD51CA214CF
:1014F000B304C404D50448F0A216B306C406D50646
:1015000020F4A20CB31CC41CD51CA21AB30AC40A32
:10151000D50AC601B501A40193010E9416627B01A0
:101520008C01C601B501A40193010E941662CA0193
:10153000B90129962CAD3DAD4EAD5FAD29970E9406
:1015400038629B01AC018701FF24EE2489A99AA986
:10155000ABA9BCA9A070B070E82AF92A0A2B1B2BF2
:10156000E216F3060407150790F4E20CF31C041DC1
:10157000151DE214F3040405150548F0E216F30600
:101580000407150720F4E20CF31C041D151DE21AD4
:10159000F30A040B150BD801C70109AC04C0B695BA
:1015A000A795979587950A94D2F7898B9A8BAB8BE1
:1015B000BC8B1D8A1E8A1F8A188E282F3A894B8958
:1015C0005C896D890CC36A147B048C049D0408F447
:1015D00009C300E0A01600E0B00601E0C00600E08C
:1015E000D00688F41FEFA116B104C104D10439F06C
:1015F00030F028E0E22EF12C012D112D18C0EE2440
:10160000FF24870114C040E0A41640E0B40640E087
:10161000C40641E0D40630F098E1E92EF12C012D0A
:10162000112D05C080E1E82EF12C012D112DD601E0
:10163000C5010E2C04C0B695A795979587950A9479
:10164000D2F786589D4FDC012C9180E290E0A0E01B
:10165000B0E08E199F09A00BB10B821B9109A10963
:10166000B1090097A105B10509F04FC0A614B70450
:10167000C804D90458F06C96ECACFDAC0EAD1FADAF
:101680006C97E214F3040405150568F16C96ECAC54
:10169000FDAC0EAD1FAD6C97E218F30804091509F7
:1016A000A40193012A193B094C095D09AA24BB2412
:1016B00065016C966CAD7DAD8EAD9FAD6C976E1572
:1016C0007F058007910728F4B1E0AB2EB12CC12C27
:1016D000D12CDA01C9018A199B09AC09BD098DAB6E
:1016E0009EABAFABB8AFE98AFA8A0B8B1C8B6DA8A7
:1016F0007EA88FA898AC6D8A7E8A8F8A988E2E2DB0
:101700003A894B895C896DA96AC267968FAF6797E2
:10171000A6019501082E04C0220F331F441F551F38
:101720000A94D2F7A0E2AA2EA81A6696AFAE6697E0
:10173000D201C10104C0B695A79597958795AA9443
:10174000D2F76C017D01C22AD32AE42AF52AC9A660
:10175000DAA6EBA6FCA68201710167960FAC67972B
:1017600004C0EE0CFF1C001F111F0A94D2F7EDA25B
:10177000FEA20FA318A76401530166960FAC6697EB
:1017800004C0D694C794B794A7940A94D2F7A4013E
:10179000930167960FAC679704C0220F331F441F55
:1017A000551F0A94D2F76C968CAD9DADAEADBFAD12
:1017B0006C9766960FAC669704C0B695A7959795FB
:1017C00087950A94D2F73C014D01622A732A842A34
:1017D000952A69A27AA28BA29CA26C96ECACFDAC75
:1017E0000EAD1FAD6C9767960FAC679704C0EE0CFB
:1017F000FF1C001F111F0A94D2F7ED8EFE8E0F8F73
:1018000018A349A55AA56BA57CA53B01882499245A
:10181000607070702D964CAF5DAF6EAF7FAF2D973F
:10182000C601B501A40193010E9416627B018C01DF
:10183000C601B501A40193010E941662C901DA0133
:101840001C012D01C201B1012D962CAD3DAD4EAD57
:101850005FAD2D970E9438629B01AC018701FF2488
:10186000EE24A9A0BAA0CBA0DCA0C601AA27BB2762
:1018700057016801A82AB92ACA2ADB2AA216B30688
:10188000C406D50600F5089421083108410851081E
:10189000E9A4FAA40BA51CA5AE0CBF1CC01ED11E4A
:1018A000AE14BF04C006D10670F0A216B306C4067B
:1018B000D50648F408942108310841085108AE0CB7
:1018C000BF1CC01ED11EA21AB30AC40AD50AC60183
:1018D000B501A40193010E9416627B018C01C6012F
:1018E000B501A40193010E941662C901DA013C010D
:1018F0004D01C401B3012D962CAD3DAD4EAD5FAD94
:101900002D970E9438629B01AC018701FF24EE24D1
:1019100089A19AA1ABA1BCA1A070B07057016801C8
:10192000A82AB92ACA2ADB2AA216B306C406D506F3
:1019300000F50894610871088108910869A57AA5E5
:101940008BA59CA5A60EB71EC81ED91EA616B70647
:10195000C806D90670F0A216B306C406D50648F428
:1019600008946108710881089108A60EB71EC81E68
:10197000D91ED601C501821B930BA40BB50B898F11
:101980009A8FAB8FBC8FD10199278827840173016F
:10199000E82AF92A0A2B1B2B4FEFA42E4FEFB42E67
:1019A000C12CD12CAE20BF20C022D122780100272B
:1019B00011276DA07EA08FA098A44FEF5FEF60E08D
:1019C00070E064227522862297228DA19EA1AFA18C
:1019D000B8A5BD018827992765966CAF7DAF8EAFFE
:1019E0009FAF6597C601B501A40193010E943862BB
:1019F00061966CAF7DAF8EAF9FAF6197C601B501A9
:101A000065962CAD3DAD4EAD5FAD65970E943862D9
:101A10001B012C01C801B701A40193010E94386287
:101A20005B016C01C801B70165962CAD3DAD4EADB3
:101A30005FAD65970E9438627B018C01A60195011C
:101A4000220D331D441D551D61966CAC7DAC8EACD2
:101A50009FAC6197C401AA27BB27280F391F4A1FD3
:101A60005B1F2A153B054C055D0548F4812C912C24
:101A7000E1E0AE2EB12CE80CF91C0A1D1B1DCA01B9
:101A8000AA27BB2757016801A80EB91ECA1EDB1E74
:101A9000A9013327222761968CAD9DADAEADBFADB8
:101AA0006197A070B070280F391F4A1F5B1FE98C27
:101AB000FA8C0B8D1C8DEA14FB040C051D0570F0CF
:101AC000AE14BF04C006D10669F56D8D7E8D8F8D75
:101AD00098A1621773078407950720F5DA01C901F9
:101AE0006DA07EA08FA098A486199709A809B909AE
:101AF000E9A4FAA40BA51CA5AE18BF08C00AD10A18
:101B0000EE24FF248701281739074A075B0728F4CA
:101B100021E0E22EF12C012D112DAE18BF08C00AD4
:101B2000D10A02C0DA01C9016D8C7E8C8F8C98A01D
:101B3000681A790A8A0A9B0A498D5A8D6B8D7C8DA9
:101B40004A195B096C097D095A016B01222433246F
:101B500021016D8D7E8D8F8D98A166157705880585
:101B6000990528F481E0282E312C412C512C860136
:101B70007501E218F30804091509A8019701669692
:101B80000FAC669704C0220F331F441F551F0A94E1
:101B9000D2F7D401C30167960FAC679704C0B6951E
:101BA000A795979587950A94D2F7282B392B4A2B1E
:101BB0005B2B298B3A8B4B8B5C8B67960FAC6797B3
:101BC00004C016950795F794E7940A94D2F7ED8A26
:101BD000FE8A0F8B188F3A894B895C896E2D7E891E
:101BE0008F89988DC55ADF4FE2E10C947362A0E0B3
:101BF000B0E0EDEFFDE00C945762DC012B01FA013F
:101C00009C91923008F439C1EB018881823008F44C
:101C100033C1943069F4843009F02FC111969C913E
:101C200011978981981709F428C1A2E7B2E025C16C
:101C3000843009F421C18230A9F4923009F01DC129
:101C40009A01AD0188E0EA010990AE01E90109922B
:101C50009E018150C1F7E201898111969C918923EF
:101C6000818308C1923009F407C112962D903C90EF
:101C70001397EB018A819B811496AD90BD90CD9016
:101C8000DC901797EC80FD800E811F819101281B4D
:101C9000390BB90137FF04C066277727621B730B26
:101CA000603271050CF061C0121613066CF5370135
:101CB0004801062E04C096948794779467940A94FA
:101CC000D2F721E030E040E050E004C0220F331FA3
:101CD000441F551F6A95D2F7215030404040504074
:101CE0002E213F2140235123211531054105510566
:101CF00021F021E030E040E050E079018A01E6285F
:101D0000F728082919293CC0232BD1F1260E371EAC
:101D100035014601062E04C0969487947794679403
:101D20000A94D2F721E030E040E050E004C0220FF6
:101D3000331F441F551F6A95D2F721503040404051
:101D400050402A213B214C215D21211531054105BF
:101D5000510521F021E030E040E050E059016A01F6
:101D6000A628B728C828D9280BC0821593052CF0BF
:101D70001C01AA24BB24650103C0EE24FF248701B3
:101D800011969C91D20111968C91981709F445C037
:101D9000992339F0A80197012A193B094C095D09DB
:101DA00006C0A60195012E193F09400B510B57FDA6
:101DB00008C011823382228224833583468357836D
:101DC0001DC081E081833382228288279927DC012C
:101DD000821B930BA40BB50B84839583A683B783D7
:101DE0000DC0220F331F441F551F248335834683A4
:101DF00057838281938101979383828324813581E4
:101E000046815781DA01C9010197A109B1098F5FA4
:101E10009F4FAF4FBF4328F30BC091833382228281
:101E2000EA0CFB1C0C1D1D1DE482F5820683178342
:101E300083E08083248135814681578157FF1AC012
:101E4000C901AA2797FDA095BA2F81709070A07044
:101E5000B0705695479537952795822B932BA42BD9
:101E6000B52B84839583A683B78382819381019662
:101E700093838283DF0101C0D201CD01CDB7DEB7EC
:101E8000E2E10C947362A0E2B0E0E9E4FFE00C94BC
:101E9000636269837A838B839C832D833E834F8324
:101EA0005887E9E0EE2EF12CEC0EFD1ECE010196D6
:101EB000B7010E9400138E010F5E1F4FCE010596E1
:101EC000B8010E9400138A8991E089278A8BC70193
:101ED000B801AE01475E5F4F0E94F70D0E942B12C2
:101EE000A096E6E00C947F62A0E2B0E0EAE7FFE0B3
:101EF0000C94636269837A838B839C832D833E83F6
:101F00004F835887F9E0EF2EF12CEC0EFD1ECE0129
:101F10000196B7010E9400138E010F5E1F4FCE0184
:101F20000596B8010E940013C701B801AE01475ED3
:101F30005F4F0E94F70D0E942B12A096E6E00C94D2
:101F40007F62A0E2B0E0E7EAFFE00C9457626983A9
:101F50007A838B839C832D833E834F835887CE0166
:101F60000196BE01675F7F4F0E940013CE01059668
:101F7000BE016F5E7F4F0E9400139985923088F0FA
:101F800089898230C8F0943019F4823051F404C049
:101F9000843029F4923081F482E792E0C6C0923016
:101FA00049F420E09A858A89981321E02A87CE0196
:101FB0000996BBC0823049F420E09A858A8998133B
:101FC00021E02A8BCE014196B0C02D843E844F84FF
:101FD00058886D887E888F88988CEE24FF2487012E
:101FE000AA24BB24650140E050E060E070E0E0E03E
:101FF000F0E0C10181709070892BE9F0E60CF71CCC
:10200000081D191D9A01AB012A0D3B1D4C1D5D1DBC
:1020100080E090E0A0E0B0E0E614F70408051905C0
:1020200020F481E090E0A0E0B0E0BA01A901480FFF
:10203000591F6A1F7B1FAA0CBB1CCC1CDD1C97FE02
:1020400008C081E090E0A0E0B0E0A82AB92ACA2A3E
:10205000DB2A3196E032F10549F0660C771C881CCA
:10206000991C5694479437942794C3CFFA85EA89EC
:102070002B893C898B859C85280F391F2E5F3F4F0C
:1020800017C0CA0181709070892B61F01695079571
:10209000F794E79480E090E0A0E0B0E8E82AF92A1D
:1020A0000A2B1B2B76956795579547952F5F3F4FCA
:1020B00077FDE7CF0CC0440F551F661F771F17FD34
:1020C0004160EE0CFF1C001F111F215030404030BA
:1020D00090E0590790E0690790E4790760F32B8F4F
:1020E0003C8FDB01CA018F779070A070B070803494
:1020F0009105A105B10561F447FD0AC0E114F104A1
:102100000105110529F0405C5F4F6F4F7F4F40780C
:102110001A8EFE1711F081E08A8F4D8F5E8F6F8FC0
:1021200078A383E0898FCE0149960E942B12A09656
:10213000E2E10C947362A8E1B0E0E1EAF0E10C9412
:102140005F6269837A838B839C832D833E834F8375
:102150005887B9E0EB2EF12CEC0EFD1ECE01019656
:10216000B7010E9400138E010F5E1F4FCE0105962E
:10217000B8010E9400132985223008F47EC03989F5
:10218000323010F4B8017CC08A859A8989278A8701
:10219000243011F0223031F4231709F06EC062E7C9
:1021A00072E06EC0343039F41D861E861F86188A90
:1021B0001C861B8604C0323021F484E08987B70175
:1021C0005FC02B853C858B899C89281B390B3C87FC
:1021D0002B87ED84FE840F851889AD88BE88CF8853
:1021E000D88CEA14FB040C051D0540F4EE0CFF1C12
:1021F000001F111F215030403C872B8720E030E02A
:1022000040E050E080E090E0A0E0B0E460E070E00A
:10221000EA14FB040C051D0540F0282B392B4A2B32
:102220005B2BEA18FB080C091D09B695A795979535
:102230008795EE0CFF1C001F111F6F5F7F4F6F31E2
:10224000710531F7DA01C9018F779070A070B07015
:1022500080349105A105B10561F427FD0AC0E114A0
:10226000F1040105110529F0205C3F4F4F4F5F4FEE
:1022700020782D873E874F87588BBE01675F7F4F41
:10228000CB010E942B126896EAE00C947B62A8E1D5
:10229000B0E0EDE4F1E10C94636269837A838B83AF
:1022A0009C832D833E834F83588789E0E82EF12C51
:1022B000EC0EFD1ECE010196B7010E9400138E01A7
:1022C0000F5E1F4FCE010596B8010E94001389854D
:1022D000823040F08989823028F0C701B8010E941D
:1022E000781301C08FEF6896E6E00C947F62A8E156
:1022F000B0E0EDE7F1E10C94636269837A838B834C
:102300009C832D833E834F83588789E0E82EF12CF0
:10231000EC0EFD1ECE010196B7010E9400138E0146
:102320000F5E1F4FCE010596B8010E9400138985EC
:10233000823040F08989823028F0C701B8010E94BC
:10234000781301C08FEF6896E6E00C947F62A8E1F5
:10235000B0E0EDEAF1E10C94636269837A838B83E8
:102360009C832D833E834F83588789E0E82EF12C90
:10237000EC0EFD1ECE010196B7010E9400138E01E6
:102380000F5E1F4FCE010596B8010E94001389858C
:10239000823040F08989823028F0C701B8010E945C
:1023A000781301C081E06896E6E00C947F62ACE0AF
:1023B000B0E0EDEDF1E10C94676269837A838B8381
:1023C0009C83CE010196BE016B5F7F4F0E9400137C
:1023D0008D81823061F1823050F1843021F48E8120
:1023E000882351F12EC02F81388537FD20C06E81A2
:1023F0002F3131051CF06623F9F023C08EE190E007
:10240000821B930B29853A854B855C8504C05695C4
:102410004795379527958A95D2F76623B1F0509561
:102420004095309521953F4F4F4F5F4F0EC020E0B4
:1024300030E040E050E009C02FEF3FEF4FEF5FE7A3
:1024400004C020E030E040E050E8B901CA012C9619
:10245000E2E00C948362DF92EF92FF920F931F935E
:10246000FC01E480F58006811781D1808081823073
:1024700048F480E090E0A0E1B0E0E82AF92A0A2BD5
:102480001B2BA5C0843009F49FC0823021F4EE24B8
:10249000FF24870105C0E114F1040105110519F4B9
:1024A000E0E0F0E096C0628173819FEF62387907C7
:1024B0000CF05BC022E83FEF261B370B2A313105B9
:1024C0002CF020E030E040E050E02AC0B801A70145
:1024D000022E04C076956795579547950A94D2F7D2
:1024E00081E090E0A0E0B0E004C0880F991FAA1F2F
:1024F000BB1F2A95D2F70197A109B1098E219F210F
:10250000A023B1230097A105B10521F081E090E05F
:10251000A0E0B0E09A01AB01282B392B4A2B5B2BB2
:10252000DA01C9018F779070A070B0708034910586
:10253000A105B10539F427FF09C0205C3F4F4F4F7B
:102540005F4F04C0215C3F4F4F4F5F4FE0E0F0E032
:102550002030A0E03A07A0E04A07A0E45A0710F0B4
:10256000E1E0F0E079018A0127C06038710564F587
:10257000FB01E158FF4FD801C7018F779070A07021
:10258000B07080349105A105B10539F4E7FE0DC0A6
:1025900080E490E0A0E0B0E004C08FE390E0A0E031
:1025A000B0E0E80EF91E0A1F1B1F17FF05C01695A5
:1025B0000795F794E794319687E016950795F79479
:1025C000E7948A95D1F705C0EE24FF248701EFEF49
:1025D000F0E06E2F679566276795902F9F77D794C9
:1025E000DD24D7948E2F8695492F462B582F5D29B1
:1025F000B701CA011F910F91FF90EF90DF900895EE
:10260000FC01DB01408151812281622F6F7770E0F4
:10261000221F2227221F9381892F880F822B282F88
:1026200030E0991F9927991F11969C9311972115B6
:102630003105A9F5411551056105710511F482E0D7
:1026400037C082E89FEF13969C938E9312979A015E
:10265000AB0167E0220F331F441F551F6A95D1F766
:1026600083E08C930DC0220F331F441F551F129619
:102670008D919C911397019713969C938E9312972B
:10268000203080E0380780E0480780E4580758F39E
:1026900014962D933D934D935C93179708952F3F78
:1026A000310579F4411551056105710519F484E08E
:1026B0008C93089564FF03C081E08C9312C01C9238
:1026C00010C02F57304013963C932E93129783E0FF
:1026D0008C9387E0440F551F661F771F8A95D1F7AB
:1026E000706414964D935D936D937C931797089542
:1026F0001F93DC01FB019C91923008F447C080815C
:10270000823008F443C0943051F411961C91843007
:1027100099F58181682F70E0611B71093FC0843099
:1027200021F0923031F48230B9F18181882389F12E
:102730002DC011961C9111978230F1F081811817EC
:10274000D9F412962D913C9113978281938182172F
:10275000930794F028173907BCF014968D919D913A
:102760000D90BC91A02D2481358146815781281779
:1027700039074A075B0718F4112341F00AC0821792
:102780009307A407B50740F4112319F061E070E046
:1027900005C06FEF7FEF02C060E070E0CB011F91DA
:1027A0000895DF93CF930F92CDB7DEB7EBE2F0E061
:1027B00080818823DCF7ECE2F0E080818983ABE262
:1027C000B0E0EBE2F0E0808180688C9389810F902B
:1027D000CF91DF910895DF93CF930F92CDB7DEB7FE
:1027E0008983EBE2F0E08081882F90E08072907026
:1027F0000097B9F3ECE2F0E0898180830F90CF91EC
:10280000DF910895DF93CF93CDB7DEB7E9E2F0E033
:1028100083E38083E0E9F0E01082A5E9B0E0E5E938
:10282000F0E080818F7B8C93A5E9B0E0E5E9F0E0F2
:1028300080818F7D8C93A5E9B0E0E5E9F0E08081AF
:102840008F7E8C93A5E9B0E0E5E9F0E08081877F99
:102850008C93A5E9B0E0E5E9F0E0808182608C939B
:10286000A5E9B0E0E5E9F0E0808184608C93AAE21C
:10287000B0E0EAE2F0E080818B7F8C93AAE2B0E0E6
:10288000EAE2F0E0808180618C93AAE2B0E0EAE2C3
:10289000F0E0808188608C93CF91DF910895DF9381
:1028A000CF9300D00F92CDB7DEB79B838A83198276
:1028B0000EC08981282F30E08A819B81FC01E20FC4
:1028C000F31F80810E94EB1389818F5F8983898147
:1028D000282F30E08A819B81FC01E20FF31F808169
:1028E000882339F70F900F900F90CF91DF910895C3
:1028F000DF93CF93CDB7DEB72C970FB6F894DEBF3A
:102900000FBECDBF89836A834B832C838981282F97
:1029100030E03C872B878B859C858730910509F4B7
:1029200024C12B853C85283031054CF58B859C8551
:102930008330910509F4A5C02B853C8524303105F1
:102940008CF48B859C858130910509F460C02B85C2
:102950003C85223031050CF077C08B859C85009733
:10296000C9F1EAC12B853C852530310509F4C3C086
:102970008B859C85863091050CF0DAC09FC02B8535
:102980003C852B30310509F464C18B859C858C30E6
:1029900091056CF42B853C852930310509F41FC164
:1029A0008B859C858A3091050CF036C1FBC02B8548
:1029B0003C852D30310509F486C18B859C858D3091
:1029C00091050CF463C12B853C852E30310509F44B
:1029D00097C1B2C1ABE8B0E0EBE8F0E080818E7F58
:1029E0008C93ABE8B0E0EBE8F0E080818D7F8C93D6
:1029F000AAE8B0E0EAE8F0E08081877F8C93AAE85B
:102A0000B0E0EAE8F0E080818F7E8C9395C1ABE87E
:102A1000B0E0EBE8F0E0808181608C93ABE8B0E05F
:102A2000EBE8F0E080818D7F8C93AAE8B0E0EAE8E3
:102A3000F0E08081877F8C93AAE8B0E0EAE8F0E0DC
:102A400080818F7E8C9378C1ABE8B0E0EBE8F0E05A
:102A500080818E7F8C93ABE8B0E0EBE8F0E0808182
:102A600082608C93AAE8B0E0EAE8F0E08081877F9A
:102A70008C93AAE8B0E0EAE8F0E080818F7E8C9346
:102A80005BC1ABE8B0E0EBE8F0E0808181608C9363
:102A9000ABE8B0E0EBE8F0E0808182608C93AAE8DC
:102AA000B0E0EAE8F0E08081877F8C93AAE8B0E0AC
:102AB000EAE8F0E080818F7E8C933EC1ABE8B0E025
:102AC000EBE8F0E080818E7F8C93ABE8B0E0EBE840
:102AD000F0E080818D7F8C93AAE8B0E0EAE8F0E036
:102AE000808188608C93AAE8B0E0EAE8F0E0808119
:102AF0008F7E8C9321C1ABE8B0E0EBE8F0E0808101
:102B000081608C93ABE8B0E0EBE8F0E080818D7FF2
:102B10008C93AAE8B0E0EAE8F0E0808188608C93CA
:102B2000AAE8B0E0EAE8F0E080818F7E8C9304C1EF
:102B3000ABE8B0E0EBE8F0E080818E7F8C93ABE80F
:102B4000B0E0EBE8F0E0808182608C93AAE8B0E02E
:102B5000EAE8F0E0808188608C93AAE8B0E0EAE8D7
:102B6000F0E080818F7E8C93E7C0ABE8B0E0EBE8CB
:102B7000F0E0808181608C93ABE8B0E0EBE8F0E0BE
:102B8000808182608C93AAE8B0E0EAE8F0E080817E
:102B900088608C93AAE8B0E0EAE8F0E080818F7E5C
:102BA0008C93CAC0ABE8B0E0EBE8F0E080818E7FA8
:102BB0008C93ABE8B0E0EBE8F0E080818D7F8C9304
:102BC000AAE8B0E0EAE8F0E08081877F8C93AAE889
:102BD000B0E0EAE8F0E0808180618C93ADC0ABE8C2
:102BE000B0E0EBE8F0E0808181608C93ABE8B0E08E
:102BF000EBE8F0E080818D7F8C93AAE8B0E0EAE812
:102C0000F0E08081877F8C93AAE8B0E0EAE8F0E00A
:102C1000808180618C9390C0ABE8B0E0EBE8F0E09D
:102C200080818E7F8C93ABE8B0E0EBE8F0E08081B0
:102C300082608C93AAE8B0E0EAE8F0E08081877FC8
:102C40008C93AAE8B0E0EAE8F0E0808180618C93A0
:102C500073C0ABE8B0E0EBE8F0E0808181608C937A
:102C6000ABE8B0E0EBE8F0E0808182608C93AAE80A
:102C7000B0E0EAE8F0E08081877F8C93AAE8B0E0DA
:102C8000EAE8F0E0808180618C9356C0ABE8B0E068
:102C9000EBE8F0E080818E7F8C93ABE8B0E0EBE86E
:102CA000F0E080818D7F8C93AAE8B0E0EAE8F0E064
:102CB000808188608C93AAE8B0E0EAE8F0E0808147
:102CC00080618C9339C0ABE8B0E0EBE8F0E0808144
:102CD0008E7F8C93ABE8B0E0EBE8F0E0808182601F
:102CE0008C93AAE8B0E0EAE8F0E0808188608C93F9
:102CF000AAE8B0E0EAE8F0E0808180618C931CC033
:102D0000ABE8B0E0EBE8F0E0808181608C93ABE869
:102D1000B0E0EBE8F0E0808182608C93AAE8B0E05C
:102D2000EAE8F0E0808188608C93AAE8B0E0EAE805
:102D3000F0E0808180618C938B81282F30E03A878E
:102D4000298789859A858130910509F4CFC0298525
:102D50003A85223031052CF489859A85009769F0EF
:102D6000C5C029853A852230310591F189859A853A
:102D70008330910509F474C0B9C0ABE8B0E0EBE86A
:102D8000F0E080818F7B8C93ABE8B0E0EBE8F0E083
:102D900080818F778C93ABE8B0E0EBE8F0E0808146
:102DA0008F7E8C93ABE8B0E0EBE8F0E080818F7D24
:102DB0008C93ABE8B0E0EBE8F0E080818B7F8C9304
:102DC000ABE8B0E0EBE8F0E08081877F8C938EC0C9
:102DD0008C81282F30E038872F838F819885813030
:102DE000910589F02F813885223031050CF47EC0A1
:102DF0008F81988582309105A9F02F813885233005
:102E00003105F9F073C0ABE8B0E0EBE8F0E08081A9
:102E10008F7B8C93ABE8B0E0EBE8F0E080818068DA
:102E20008C9364C0ABE8B0E0EBE8F0E080818F7E8B
:102E30008C93ABE8B0E0EBE8F0E0808180628C93AB
:102E400055C0ABE8B0E0EBE8F0E080818B7F8C937D
:102E5000ABE8B0E0EBE8F0E0808188608C9346C09E
:102E60008C81282F30E03E832D838D819E8181309F
:102E7000910581F02D813E8122303105BCF18D819B
:102E80009E8182309105A9F02D813E81233031054C
:102E9000F9F02CC0ABE8B0E0EBE8F0E080818064B2
:102EA0008C93ABE8B0E0EBE8F0E0808180688C9335
:102EB0001DC0ABE8B0E0EBE8F0E0808180618C936E
:102EC000ABE8B0E0EBE8F0E0808180628C930EC06C
:102ED000ABE8B0E0EBE8F0E0808184608C93ABE895
:102EE000B0E0EBE8F0E0808188608C93AAE8B0E085
:102EF000EAE8F0E08081887F8C93AAE8B0E0EAE815
:102F0000F0E090818A81892B8C932C960FB6F894EF
:102F1000DEBF0FBECDBFCF91DF910895DF93CF937A
:102F20000F92CDB7DEB789838981813041F4AAE859
:102F3000B0E0EAE8F0E0808180648C930AC0898187
:102F4000882339F4AAE8B0E0EAE8F0E080818F7BDA
:102F50008C930F90CF91DF910895DF93CF93CDB7EE
:102F6000DEB7ADE7B0E0EDE7F0E0808180628C9302
:102F7000CF91DF910895DF93CF93CDB7DEB7ADE763
:102F8000B0E0EDE7F0E080818F7D8C93CF91DF9111
:102F90000895DF93CF93CDB7DEB7ADE7B0E0EDE7AF
:102FA000F0E0808184608C93CF91DF910895DF936E
:102FB000CF93CDB7DEB7ADE7B0E0EDE7F0E08081CD
:102FC0008B7F8C93CF91DF910895DF93CF93CDB713
:102FD000DEB7ADE7B0E0EDE7F0E0808180618C9393
:102FE000CF91DF910895DF93CF93CDB7DEB7ADE7F3
:102FF000B0E0EDE7F0E080818F7E8C93CF91DF91A0
:103000000895DF93CF93CDB7DEB7ADE7B0E0EDE73E
:10301000F0E0808188608C93CF91DF910895DF93F9
:10302000CF93CDB7DEB7ADE7B0E0EDE7F0E080815C
:10303000877F8C93CF91DF910895DF93CF93CDB7A6
:10304000DEB7ADE7B0E0EDE7F0E0808182608C9321
:10305000CF91DF910895DF93CF93CDB7DEB7ADE782
:10306000B0E0EDE7F0E080818D7F8C93CF91DF9130
:103070000895DF93CF9300D0CDB7DEB7E0E8F0E05E
:103080008081282F30E0E1E8F0E08081882F90E017
:10309000982F8827822B932B9A83898389819A8101
:1030A0000F900F90CF91DF910895DF93CF9300D0D1
:1030B000CDB7DEB7E8E8F0E08081282F30E0E9E81E
:1030C000F0E08081882F90E0982F8827822B932B27
:1030D0009A83898389819A810F900F90CF91DF9194
:1030E0000895DF93CF9300D0CDB7DEB79A8389835D
:1030F000E8E8F0E089818083E9E8F0E089819A815D
:10310000892F992780830F900F90CF91DF91089599
:10311000DF93CF9300D000D00F92CDB7DEB79A8364
:1031200089836B838B81282F30E03D832C838C81B6
:103130009D818130910581F02C813D8122303105C6
:1031400074F18C819D818230910591F02C813D81BB
:1031500023303105C9F023C0E6E8F0E0898180839F
:10316000E7E8F0E089819A81892F9927808317C049
:10317000E4E8F0E089818083E5E8F0E089819A81E4
:10318000892F992780830BC0E2E8F0E08981808352
:10319000E3E8F0E089819A81892F992780830F9055
:1031A0000F900F900F900F90CF91DF910895DF93C4
:1031B000CF93CDB7DEB72E970FB6F894DEBF0FBE14
:1031C000CDBF89836A834B832C838981282F30E08C
:1031D0003E872D878D859E858730910509F424C112
:1031E0002D853E85283031054CF58D859E858330B3
:1031F000910509F4A5C02D853E85243031058CF458
:103200008D859E858130910509F460C02D853E85B0
:10321000223031050CF077C08D859E850097C9F16D
:10322000EAC12D853E852530310509F4C3C08D8561
:103230009E85863091050CF0DAC09FC02D853E85B5
:103240002B30310509F464C18D859E858C30910544
:103250006CF42D853E852930310509F41FC18D851B
:103260009E858A3091050CF036C1FBC02D853E85C8
:103270002D30310509F486C18D859E858D309105EF
:103280000CF463C12D853E852E30310509F497C1BC
:10329000B2C1AFE4B0E0EFE4F0E080818E7F8C93C8
:1032A000AFE4B0E0EFE4F0E080818D7F8C93AEE49A
:1032B000B0E0EEE4F0E08081877F8C93AEE4B0E094
:1032C000EEE4F0E080818F7E8C9395C1AFE4B0E0B6
:1032D000EFE4F0E0808181608C93AFE4B0E0EFE454
:1032E000F0E080818D7F8C93AEE4B0E0EEE4F0E01E
:1032F0008081877F8C93AEE4B0E0EEE4F0E08081E3
:103300008F7E8C9378C1AFE4B0E0EFE4F0E0808191
:103310008E7F8C93AFE4B0E0EFE4F0E080818260D8
:103320008C93AEE4B0E0EEE4F0E08081877F8C9394
:10333000AEE4B0E0EEE4F0E080818F7E8C935BC180
:10334000AFE4B0E0EFE4F0E0808181608C93AFE423
:10335000B0E0EFE4F0E0808182608C93AEE4B0E016
:10336000EEE4F0E08081877F8C93AEE4B0E0EEE4A1
:10337000F0E080818F7E8C933EC1AFE4B0E0EFE45B
:10338000F0E080818E7F8C93AFE4B0E0EFE4F0E07A
:1033900080818D7F8C93AEE4B0E0EEE4F0E080813C
:1033A00088608C93AEE4B0E0EEE4F0E080818F7E44
:1033B0008C9321C1AFE4B0E0EFE4F0E08081816064
:1033C0008C93AFE4B0E0EFE4F0E080818D7F8C93EC
:1033D000AEE4B0E0EEE4F0E0808188608C93AEE48F
:1033E000B0E0EEE4F0E080818F7E8C9304C1AFE426
:1033F000B0E0EFE4F0E080818E7F8C93AFE4B0E04A
:10340000EFE4F0E0808182608C93AEE4B0E0EEE423
:10341000F0E0808188608C93AEE4B0E0EEE4F0E010
:1034200080818F7E8C93E7C0AFE4B0E0EFE4F0E002
:10343000808181608C93AFE4B0E0EFE4F0E08081C4
:1034400082608C93AEE4B0E0EEE4F0E080818860CE
:103450008C93AEE4B0E0EEE4F0E080818F7E8C935C
:10346000CAC0AFE4B0E0EFE4F0E080818E7F8C93DF
:10347000AFE4B0E0EFE4F0E080818D7F8C93AEE4C8
:10348000B0E0EEE4F0E08081877F8C93AEE4B0E0C2
:10349000EEE4F0E0808180618C93ADC0AFE4B0E0F9
:1034A000EFE4F0E0808181608C93AFE4B0E0EFE482
:1034B000F0E080818D7F8C93AEE4B0E0EEE4F0E04C
:1034C0008081877F8C93AEE4B0E0EEE4F0E0808111
:1034D00080618C9390C0AFE4B0E0EFE4F0E08081D5
:1034E0008E7F8C93AFE4B0E0EFE4F0E08081826007
:1034F0008C93AEE4B0E0EEE4F0E08081877F8C93C3
:10350000AEE4B0E0EEE4F0E0808180618C9373C0C3
:10351000AFE4B0E0EFE4F0E0808181608C93AFE451
:10352000B0E0EFE4F0E0808182608C93AEE4B0E044
:10353000EEE4F0E08081877F8C93AEE4B0E0EEE4CF
:10354000F0E0808180618C9356C0AFE4B0E0EFE49E
:10355000F0E080818E7F8C93AFE4B0E0EFE4F0E0A8
:1035600080818D7F8C93AEE4B0E0EEE4F0E080816A
:1035700088608C93AEE4B0E0EEE4F0E0808180619E
:103580008C9339C0AFE4B0E0EFE4F0E080818E7F4F
:103590008C93AFE4B0E0EFE4F0E0808182608C9344
:1035A000AEE4B0E0EEE4F0E0808188608C93AEE4BD
:1035B000B0E0EEE4F0E0808180618C931CC0AFE469
:1035C000B0E0EFE4F0E0808181608C93AFE4B0E0A4
:1035D000EFE4F0E0808182608C93AEE4B0E0EEE452
:1035E000F0E0808188608C93AEE4B0E0EEE4F0E03F
:1035F000808180618C938B81282F30E03C872B87E2
:103600008B859C858130910509F442C02B853C85D2
:10361000223031052CF48B859C85009771F00EC10A
:103620002B853C852230310509F47AC08B859C8539
:103630008330910509F4BCC001C1AFE4B0E0EFE410
:10364000F0E080818F7B8C93AFE4B0E0EFE4F0E0BA
:1036500080818F778C93AFE4B0E0EFE4F0E080817D
:103660008F7E8C93AFE4B0E0EFE4F0E080818F7D5B
:103670008C93AFE4B0E0EFE4F0E080818B7F8C933B
:10368000AFE4B0E0EFE4F0E08081877F8C93D6C0B8
:103690008C81282F30E03A87298789859A85813067
:1036A000910589F029853A85223031050CF4C6C090
:1036B00089859A8582309105A9F029853A8523303C
:1036C0003105F9F0BBC0AFE4B0E0EFE4F0E0808199
:1036D00080648C93AFE4B0E0EFE4F0E080818F771A
:1036E0008C93ACC0AFE4B0E0EFE4F0E080818061A7
:1036F0008C93AFE4B0E0EFE4F0E080818F7D8C93B9
:103700009DC0AFE4B0E0EFE4F0E0808184608C9392
:10371000AFE4B0E0EFE4F0E08081877F8C938EC06F
:103720008C81282F30E038872F838F8198858130D6
:10373000910589F02F813885223031050CF47EC047
:103740008F81988582309105A9F02F8138852330AB
:103750003105F9F073C0AFE4B0E0EFE4F0E0808150
:103760008F7B8C93AFE4B0E0EFE4F0E08081806881
:103770008C9364C0AFE4B0E0EFE4F0E080818F7E32
:103780008C93AFE4B0E0EFE4F0E0808180628C9352
:1037900055C0AFE4B0E0EFE4F0E080818B7F8C9324
:1037A000AFE4B0E0EFE4F0E0808188608C9346C045
:1037B0008C81282F30E03E832D838D819E81813046
:1037C000910581F02D813E8122303105BCF18D8142
:1037D0009E8182309105A9F02D813E8123303105F3
:1037E000F9F02CC0AFE4B0E0EFE4F0E08081806459
:1037F0008C93AFE4B0E0EFE4F0E0808180688C93DC
:103800001DC0AFE4B0E0EFE4F0E0808180618C9314
:10381000AFE4B0E0EFE4F0E0808180628C930EC012
:10382000AFE4B0E0EFE4F0E0808184608C93AFE43B
:10383000B0E0EFE4F0E0808188608C93AEE4B0E02B
:10384000EEE4F0E08081887F8C93AEE4B0E0EEE4BB
:10385000F0E090818A81892B8C932E960FB6F89494
:10386000DEBF0FBECDBFCF91DF910895DF93CF9321
:103870000F92CDB7DEB789838981813041F4AEE400
:10388000B0E0EEE4F0E0808180648C930AC089812E
:10389000882339F4AEE4B0E0EEE4F0E080818F7B81
:1038A0008C930F90CF91DF910895DF93CF93CDB795
:1038B000DEB7A7E5B0E0E7E5F0E0808180628C93B9
:1038C000CF91DF910895DF93CF93CDB7DEB7A7E512
:1038D000B0E0E7E5F0E080818F7D8C93CF91DF91C0
:1038E0000895DF93CF93CDB7DEB7A7E5B0E0E7E566
:1038F000F0E0808184608C93CF91DF910895DF9315
:10390000CF93CDB7DEB7A7E5B0E0E7E5F0E0808183
:103910008B7F8C93CF91DF910895DF93CF93CDB7B9
:10392000DEB7A7E5B0E0E7E5F0E0808180618C9349
:10393000CF91DF910895DF93CF93CDB7DEB7A7E5A1
:10394000B0E0E7E5F0E080818F7E8C93CF91DF914E
:103950000895DF93CF93CDB7DEB7A7E5B0E0E7E5F5
:10396000F0E0808188608C93CF91DF910895DF93A0
:10397000CF93CDB7DEB7A7E5B0E0E7E5F0E0808113
:10398000877F8C93CF91DF910895DF93CF93CDB74D
:10399000DEB7ADE7B0E0EDE7F0E0808181608C93C9
:1039A000CF91DF910895DF93CF93CDB7DEB7ADE729
:1039B000B0E0EDE7F0E080818E7F8C93CF91DF91D6
:1039C0000895DF93CF9300D0CDB7DEB7E6E4F0E003
:1039D0008081282F30E0E7E4F0E08081882F90E0BC
:1039E000982F8827822B932B9A83898389819A81A8
:1039F0000F900F90CF91DF910895DF93CF9300D078
:103A0000CDB7DEB7ECE4F0E08081282F30E0EDE4C4
:103A1000F0E08081882F90E0982F8827822B932BCD
:103A20009A83898389819A810F900F90CF91DF913A
:103A30000895DF93CF9300D0CDB7DEB79A83898303
:103A4000ECE4F0E089818083EDE4F0E089819A8103
:103A5000892F992780830F900F90CF91DF91089540
:103A6000DF93CF9300D000D00F92CDB7DEB79A830B
:103A700089836B838B81282F30E03D832C838C815D
:103A80009D818130910581F02C813D81223031056D
:103A900074F18C819D818230910591F02C813D8162
:103AA00023303105C9F023C0EAE4F0E08981808346
:103AB000EBE4F0E089819A81892F9927808317C0F0
:103AC000E8E4F0E089818083E9E4F0E089819A818B
:103AD000892F992780830BC0E8E7F0E089818083F4
:103AE000E9E7F0E089819A81892F992780830F90F7
:103AF0000F900F900F900F90CF91DF910895DF936B
:103B0000CF93CDB7DEB727970FB6F894DEBF0FBEC1
:103B1000CDBF89836A834B838981282F30E03F831F
:103B20002E838E819F818130910521F12E813F81ED
:103B3000223031052CF48E819F81009761F046C0C0
:103B40002E813F812230310521F18E819F8183308A
:103B5000910571F13BC0A3E5B0E0E3E5F0E08081C1
:103B60008F7B8C93A3E5B0E0E3E5F0E08081877F75
:103B70008C932CC0A3E5B0E0E3E5F0E080818064A5
:103B80008C93A3E5B0E0E3E5F0E08081877F8C9340
:103B90001DC0A3E5B0E0E3E5F0E080818F7B8C936E
:103BA000A3E5B0E0E3E5F0E0808188608C930EC08F
:103BB000A3E5B0E0E3E5F0E0808180648C93A3E5C9
:103BC000B0E0E3E5F0E0808188608C938B81282F62
:103BD00030E03D832C838C819D818130910521F1E2
:103BE0002C813D81223031052CF48C819D81009700
:103BF00061F046C02C813D812230310521F18C815C
:103C00009D818330910571F13BC0A3E5B0E0E3E510
:103C1000F0E080818F7E8C93A3E5B0E0E3E5F0E0F7
:103C200080818F7D8C932CC0A3E5B0E0E3E5F0E0CC
:103C3000808180618C93A3E5B0E0E3E5F0E08081D2
:103C40008F7D8C931DC0A3E5B0E0E3E5F0E08081BB
:103C50008F7E8C93A3E5B0E0E3E5F0E080818062A5
:103C60008C930EC0A3E5B0E0E3E5F0E080818061D5
:103C70008C93A3E5B0E0E3E5F0E0808180628C9373
:103C8000A3E5B0E0E3E5F0E08081887F8C93A3E5D5
:103C9000B0E0E3E5F0E090818A81892B8C93279650
:103CA0000FB6F894DEBF0FBECDBFCF91DF91089560
:103CB000DF93CF93CDB7DEB7A7E5B0E0E7E5F0E05F
:103CC000808181608C93CF91DF910895DF93CF93B2
:103CD000CDB7DEB7A7E5B0E0E7E5F0E080818E7F05
:103CE0008C93CF91DF910895DF93CF93CDB7DEB75B
:103CF000A7E5B0E0E7E5F0E0808182608C93CF91AA
:103D0000DF910895DF93CF93CDB7DEB7A7E5B0E09D
:103D1000E7E5F0E080818D7F8C93CF91DF9108956E
:103D2000DF93CF930F92CDB7DEB78983E1E5F0E063
:103D3000898180830F90CF91DF910895DF93CF9396
:103D40000F92CDB7DEB78983E2E5F0E08981808309
:103D50000F90CF91DF910895DF93CF93CDB7DEB76A
:103D6000E2E5F0E08081CF91DF910895DF93CF937A
:103D7000CDB7DEB727970FB6F894DEBF0FBECDBF25
:103D800089836A834B838B81882309F0C6C089812C
:103D9000282F30E03F832E838E819F8183309105D1
:103DA00009F467C02E813F812430310584F48E816F
:103DB0009F818130910599F12E813F81223031051B
:103DC0000CF042C08E819F810097A1F068C12E81C6
:103DD0003F812530310509F476C08E819F81853081
:103DE00091050CF45BC02E813F812630310509F42A
:103DF0007FC055C1AAE3B0E0EAE3F0E08081482F3C
:103E00008A81282F30E081E090E0022E02C0880FE6
:103E1000991F0A94E2F7809584238C9340C1A7E30D
:103E2000B0E0E7E3F0E08081482F8A81282F30E07E
:103E300081E090E0022E02C0880F991F0A94E2F7F9
:103E4000809584238C932BC1A4E3B0E0E4E3F0E0FD
:103E50008081482F8A81282F30E081E090E0022E77
:103E600002C0880F991F0A94E2F7809584238C93EF
:103E700016C1A1E3B0E0E1E3F0E08081482F8A8140
:103E8000282F30E081E090E0022E02C0880F991FB9
:103E90000A94E2F7809584238C9301C1A2E2B0E0FA
:103EA000E2E2F0E08081482F8A81282F30E081E033
:103EB00090E0022E02C0880F991F0A94E2F78095C5
:103EC00084238C93ECC0A1E6B0E0E1E6F0E08081D1
:103ED000482F8A81282F30E081E090E0022E02C036
:103EE000880F991F0A94E2F7809584238C93D7C09A
:103EF000A4E6B0E0E4E6F0E08081482F8A81282F34
:103F000030E081E090E0022E02C0880F991F0A94F1
:103F1000E2F7809584238C93C2C08B81813009F0B5
:103F2000BEC08981282F30E03D832C838C819D8108
:103F30008330910509F464C02C813D812430310522
:103F400084F48C819D818130910591F12C813D819A
:103F5000223031050CF040C08C819D810097A1F08A
:103F60009EC02C813D812530310509F471C08C81C2
:103F70009D81853091050CF457C02C813D81263000
:103F8000310509F479C08BC0AAE3B0E0EAE3F0E0C0
:103F90008081482F8A81282F30E081E090E0022E36
:103FA00002C0880F991F0A94E2F7842B8C9377C084
:103FB000A7E3B0E0E7E3F0E08081482F8A81282F73
:103FC00030E081E090E0022E02C0880F991F0A9431
:103FD000E2F7842B8C9363C0A4E3B0E0E4E3F0E069
:103FE0008081482F8A81282F30E081E090E0022EE6
:103FF00002C0880F991F0A94E2F7842B8C934FC05C
:10400000A1E3B0E0E1E3F0E08081482F8A81282F2E
:1040100030E081E090E0022E02C0880F991F0A94E0
:10402000E2F7842B8C933BC0A2E2B0E0E2E2F0E046
:104030008081482F8A81282F30E081E090E0022E95
:1040400002C0880F991F0A94E2F7842B8C9327C033
:10405000A1E6B0E0E1E6F0E08081482F8A81282FD8
:1040600030E081E090E0022E02C0880F991F0A9490
:10407000E2F7842B8C9313C0A4E6B0E0E4E6F0E012
:104080008081482F8A81282F30E081E090E0022E45
:1040900002C0880F991F0A94E2F7842B8C9327960D
:1040A0000FB6F894DEBF0FBECDBFCF91DF9108955C
:1040B000DF93CF93CDB7DEB727970FB6F894DEBF67
:1040C0000FBECDBF89836A834B838B81882309F020
:1040D000C6C08981282F30E03F832E838E819F8147
:1040E0008330910509F467C02E813F81243031056A
:1040F00084F48E819F818130910599F12E813F81D9
:10410000223031050CF042C08E819F810097A1F0D2
:1041100068C12E813F812530310509F476C08E813A
:104120009F81853091050CF45BC02E813F81263044
:10413000310509F47FC055C1ABE3B0E0EBE3F0E03B
:104140008081482F8A81282F30E081E090E0022E84
:1041500002C0880F991F0A94E2F7809584238C93FC
:1041600040C1A8E3B0E0E8E3F0E08081482F8A8115
:10417000282F30E081E090E0022E02C0880F991FC6
:104180000A94E2F7809584238C932BC1A5E3B0E0D9
:10419000E5E3F0E08081482F8A81282F30E081E03C
:1041A00090E0022E02C0880F991F0A94E2F78095D2
:1041B00084238C9316C1A2E3B0E0E2E3F0E08081B7
:1041C000482F8A81282F30E081E090E0022E02C043
:1041D000880F991F0A94E2F7809584238C9301C17C
:1041E000A3E2B0E0E3E2F0E08081482F8A81282F4B
:1041F00030E081E090E0022E02C0880F991F0A94FF
:10420000E2F7809584238C93ECC0A2E6B0E0E2E66E
:10421000F0E08081482F8A81282F30E081E090E013
:10422000022E02C0880F991F0A94E2F7809584231A
:104230008C93D7C0A5E6B0E0E5E6F0E08081482F9A
:104240008A81282F30E081E090E0022E02C0880FA2
:10425000991F0A94E2F7809584238C93C2C08B81C6
:10426000813009F0BEC08981282F30E03D832C8346
:104270008C819D818330910509F464C02C813D813E
:104280002430310584F48C819D818130910591F138
:104290002C813D81223031050CF040C08C819D8104
:1042A0000097A1F09EC02C813D812530310509F495
:1042B00071C08C819D81853091050CF457C02C8193
:1042C0003D812630310509F479C08BC0ABE3B0E005
:1042D000EBE3F0E08081482F8A81282F30E081E0F5
:1042E00090E0022E02C0880F991F0A94E2F7842BF7
:1042F0008C9377C0A8E3B0E0E8E3F0E08081482F3A
:104300008A81282F30E081E090E0022E02C0880FE1
:10431000991F0A94E2F7842B8C9363C0A5E3B0E065
:10432000E5E3F0E08081482F8A81282F30E081E0AA
:1043300090E0022E02C0880F991F0A94E2F7842BA6
:104340008C934FC0A2E3B0E0E2E3F0E08081482F1D
:104350008A81282F30E081E090E0022E02C0880F91
:10436000991F0A94E2F7842B8C933BC0A3E2B0E040
:10437000E3E2F0E08081482F8A81282F30E081E05D
:1043800090E0022E02C0880F991F0A94E2F7842B56
:104390008C9327C0A2E6B0E0E2E6F0E08081482FEF
:1043A0008A81282F30E081E090E0022E02C0880F41
:1043B000991F0A94E2F7842B8C9313C0A5E6B0E012
:1043C000E5E6F0E08081482F8A81282F30E081E007
:1043D00090E0022E02C0880F991F0A94E2F7842B06
:1043E0008C9327960FB6F894DEBF0FBECDBFCF914A
:1043F000DF910895DF93CF9300D000D00F92CDB717
:10440000DEB78A836B838A81282F30E03D832C833B
:104410004C815D814330510509F45EC08C819D81E2
:104420008430910584F42C813D812130310581F166
:104430004C815D81423051050CF03CC08C819D81E6
:104440000097A1F090C02C813D812530310509F401
:1044500067C04C815D81453051050CF44FC08C81A3
:104460009D818630910509F46DC07DC0E9E3F0E0DF
:104470008081282F30E08B81882F90E0A90102C035
:10448000559547958A95E2F7CA01817089836BC07B
:10449000E6E3F0E08081282F30E08B81882F90E0E8
:1044A000A90102C0559547958A95E2F7CA01817026
:1044B000898359C0E3E3F0E08081282F30E08B81CD
:1044C000882F90E0A90102C0559547958A95E2F79B
:1044D000CA018170898347C0E0E3F0E08081282F22
:1044E00030E08B81882F90E0A90102C05595479557
:1044F0008A95E2F7CA018170898335C0E1E2F0E074
:104500008081282F30E08B81882F90E0A90102C0A4
:10451000559547958A95E2F7CA018170898323C032
:10452000E0E2F0E08081282F30E08B81882F90E05E
:10453000A90102C0559547958A95E2F7CA01817095
:10454000898311C0E3E6F0E08081282F30E08B8181
:10455000882F90E0A90102C0559547958A95E2F70A
:10456000CA018170898389810F900F900F900F90FD
:104570000F90CF91DF910895DF93CF9300D000D0BB
:10458000CDB7DEB789836A838981282F30E03C83E9
:104590002B838B819C818330910599F12B813C8108
:1045A000243031057CF48B819C8181309105F9F0B8
:1045B0002B813C8122303105FCF48B819C8100975A
:1045C00089F032C02B813C812530310521F18B816E
:1045D0009C8185309105D4F02B813C8126303105BA
:1045E000F9F022C0EAE3F0E08A8180831DC0E7E3AE
:1045F000F0E08A81808318C0E4E3F0E08A81808360
:1046000013C0E1E3F0E08A8180830EC0E2E2F0E0D3
:104610008A81808309C0E1E6F0E08A81808304C05A
:10462000E4E6F0E08A8180830F900F900F900F9066
:10463000CF91DF910895DF93CF9300D000D0CDB715
:10464000DEB789836A838981282F30E03C832B83FE
:104650008B819C818330910599F12B813C812430A1
:1046600031057CF48B819C8181309105F9F02B819F
:104670003C8122303105FCF48B819C81009789F0CC
:1046800032C02B813C812530310521F18B819C8109
:1046900085309105D4F02B813C8126303105F9F02D
:1046A00022C0EBE3F0E08A8180831DC0E8E3F0E004
:1046B0008A81808318C0E5E3F0E08A81808313C09B
:1046C000E2E3F0E08A8180830EC0E3E2F0E08A81D9
:1046D000808309C0E2E6F0E08A81808304C0E5E6D9
:1046E000F0E08A8180830F900F900F900F90CF9110
:1046F000DF910895DF93CF93CDB7DEB727970FB63D
:10470000F894DEBF0FBECDBF89836A834B838B8154
:10471000882309F085C08981282F30E03F832E83CC
:104720008E819F818330910509F44AC02E813F819B
:10473000243031057CF48E819F818130910541F1D7
:104740002E813F81223031057CF58E819F8100973B
:1047500099F0DAC02E813F812530310509F448C037
:104760008E819F8185309105BCF12E813F8126305D
:10477000310509F449C0C8C0ABE3B0E0EBE3F0E0B9
:104780008081982F907F8A818F70892B8C93BCC0F9
:10479000A8E3B0E0E8E3F0E08081982F907F8A8181
:1047A0008F70892B8C93B0C0A5E3B0E0E5E3F0E017
:1047B0008081982F907F8A818F70892B8C93A4C0E1
:1047C000A2E3B0E0E2E3F0E08081982F907F8A815D
:1047D0008F70892B8C9398C0A3E2B0E0E3E2F0E005
:1047E0008081982F907F8A818F70892B8C938CC0C9
:1047F000A2E6B0E0E2E6F0E08081982F907F8A8127
:104800008F70892B8C9380C0A5E6B0E0E5E6F0E0E0
:104810008081982F907F8A818F70892B8C9374C0B0
:104820008B81813009F070C08981282F30E03D8371
:104830002C838C819D8182309105B9F12C813D8141
:104840002330310554F48C819D810097B1F02C8187
:104850003D8121303105E9F057C08C819D81843044
:104860009105D9F12C813D812430310554F18C81A1
:104870009D8185309105E9F147C0ABE3B0E0EBE302
:10488000F0E08081982F9F708A81807F892B8C93A4
:104890003BC0A8E3B0E0E8E3F0E08081982F9F7090
:1048A0008A81807F892B8C932FC0A5E3B0E0E5E35C
:1048B000F0E08081982F9F708A81807F892B8C9374
:1048C00023C0A2E3B0E0E2E3F0E08081982F9F7084
:1048D0008A81807F892B8C9317C0A3E2B0E0E3E24A
:1048E000F0E08081982F9F708A81807F892B8C9344
:1048F0000BC0A2E6B0E0E2E6F0E08081982F9F7066
:104900008A81807F892B8C9327960FB6F894DEBF1F
:104910000FBECDBFCF91DF910895DF93CF9300D02D
:1049200000D0CDB7DEB78A8319828A81282F30E084
:104930003C832B838B819C818330910599F12B8162
:104940003C81243031057CF48B819C818130910540
:10495000F9F02B813C8122303105FCF48B819C8164
:10496000009789F032C02B813C812530310521F13F
:104970008B819C8185309105D4F02B813C81263040
:104980003105F9F022C0E9E3F0E0808189831DC0A0
:10499000E6E3F0E08081898318C0E3E3F0E0808102
:1049A000898313C0E0E3F0E0808189830EC0E1E2F7
:1049B000F0E08081898309C0E0E2F0E080818983B2
:1049C00004C0E3E6F0E08081898389810F900F9035
:1049D0000F900F90CF91DF910895DF93CF93CDB7D4
:1049E000DEB780E060E041E00E94B61E80E061E05A
:1049F00041E00E94B61E80E063E041E00E94B61EE6
:104A000080E064E041E00E94B61E80E065E041E0A5
:104A10000E94B61E80E062E040E020E00E94D718CD
:104A20000E94711CCF91DF910895DF93CF93CDB792
:104A3000DEB7A0970FB6F894DEBF0FBECDBF1D8EB8
:104A40001E8E1F8E18A2198E1A8E1B8E1C8E10920F
:104A50007F03ECE4F0E01182108210927E0380E08C
:104A600060E041E00E94582080E090E0A0E2B1E4E4
:104A70008D8B9E8BAF8BB88F6D897E898F89988D3A
:104A80002BEA3AEA4AE250E40E94A10FDC01CB0192
:104A9000898B9A8BAB8BBC8B69897A898B899C8932
:104AA00020E030E040E85FE30E94A71188231CF477
:104AB00081E0888B91C069897A898B899C8920E003
:104AC00030E04FE753E40E94471118160CF07BC00A
:104AD0006D897E898F89988D20E030E04AE754E423
:104AE0000E949B10DC01CB018C879D87AE87BF871E
:104AF0006C857D858E859F8520E030E04AEF54E40B
:104B00000E94A10FDC01CB0188879987AA87BB8708
:104B1000688579858A859B8520E030E040E85FE301
:104B20000E94A71188232CF481E090E09F838E835C
:104B30003FC0688579858A859B8520E03FEF4FE7F8
:104B400057E40E94471118164CF56C857D858E85BB
:104B50009F8520E030E040E251E40E94A10FDC019B
:104B6000CB01BC01CD010E94E600DC01CB019F839B
:104B70008E830FC088EC90E09D838C838C819D8117
:104B80000197F1F79D838C838E819F8101979F838D
:104B90008E838E819F81009769F724C0688579850F
:104BA0008A859B850E94E600DC01CB019F838E8372
:104BB0008E819F819B838A838A819B810197F1F7F4
:104BC0009B838A830FC069897A898B899C890E941B
:104BD000E600DC01CB01888B8889898389818A95ED
:104BE000F1F7898380E060E040E00E94582081E096
:104BF0000E94361C0E94551C80917E038230E0F397
:104C000020918203309183038091800390918103EE
:104C1000A901481B590BCA01CC01A0E0B0E08D8F5F
:104C20009E8FAF8FB8A38D8D9E8DAF8DB8A12AE3D7
:104C300030E040E050E0BC01CD010E941662DA0194
:104C4000C901898F9A8FAB8FBC8F0E94631C898D9D
:104C50009A8DAB8DBC8DBC01CD01A0960FB6F8949A
:104C6000DEBF0FBECDBFCF91DF910895DF93CF930D
:104C7000CDB7DEB7A0970FB6F894DEBF0FBECDBF9D
:104C80001D8E1E8E1F8E18A2198E1A8E1B8E1C8EC4
:104C900010927F03ECE4F0E01182108210927E0308
:104CA00080E061E041E00E94582080E090E0A0E2D6
:104CB000B1E48D8B9E8BAF8BB88F6D897E898F8988
:104CC000988D2BEA3AEA4AE250E40E94A10FDC01F7
:104CD000CB01898B9A8BAB8BBC8B69897A898B8949
:104CE0009C8920E030E040E85FE30E94A711882320
:104CF0001CF481E0888B91C069897A898B899C89B1
:104D000020E030E04FE753E40E94471118160CF002
:104D10007BC06D897E898F89988D20E030E04AE7DD
:104D200054E40E949B10DC01CB018C879D87AE87E9
:104D3000BF876C857D858E859F8520E030E04AEFBA
:104D400054E40E94A10FDC01CB0188879987AA87D0
:104D5000BB87688579858A859B8520E030E040E8BF
:104D60005FE30E94A71188232CF481E090E09F83E9
:104D70008E833FC0688579858A859B8520E03FEFDB
:104D80004FE757E40E94471118164CF56C857D8556
:104D90008E859F8520E030E040E251E40E94A10F23
:104DA000DC01CB01BC01CD010E94E600DC01CB019E
:104DB0009F838E830FC088EC90E09D838C838C81D1
:104DC0009D810197F1F79D838C838E819F8101974F
:104DD0009F838E838E819F81009769F724C06885A9
:104DE00079858A859B850E94E600DC01CB019F8343
:104DF0008E838E819F819B838A838A819B81019789
:104E0000F1F79B838A830FC069897A898B899C8992
:104E10000E94E600DC01CB01888B88898983898127
:104E20008A95F1F7898380E061E040E00E94582094
:104E300081E00E94361C0E94551C80917E038230C6
:104E4000E0F320918203309183038091800390915D
:104E50008103A901481B590BCA01CC01A0E0B0E0B5
:104E60008D8F9E8FAF8FB8A38D8D9E8DAF8DB8A186
:104E70002AE330E040E050E0BC01CD010E94166220
:104E8000DA01C901898F9A8FAB8FBC8F0E94631C96
:104E9000898D9A8DAB8DBC8DBC01CD01A0960FB6CE
:104EA000F894DEBF0FBECDBFCF91DF910895DF93A1
:104EB000CF93CDB7DEB7A0970FB6F894DEBF0FBE85
:104EC000CDBF1D8E1E8E1F8E18A2198E1A8E1B8EA0
:104ED0001C8E10927F03ECE4F0E01182108210929D
:104EE0007E0380E063E041E00E94582080E090E093
:104EF000A0E2B1E48D8B9E8BAF8BB88F6D897E89DC
:104F00008F89988D2BEA3AEA4AE250E40E94A10F79
:104F1000DC01CB01898B9A8BAB8BBC8B69897A893D
:104F20008B899C8920E030E040E85FE30E94A71174
:104F300088231CF481E0888B91C069897A898B89E8
:104F40009C8920E030E04FE753E40E944711181697
:104F50000CF07BC06D897E898F89988D20E030E0D0
:104F60004AE754E40E949B10DC01CB018C879D87AB
:104F7000AE87BF876C857D858E859F8520E030E07C
:104F80004AEF54E40E94A10FDC01CB018887998786
:104F9000AA87BB87688579858A859B8520E030E074
:104FA00040E85FE30E94A71188232CF481E090E0A1
:104FB0009F838E833FC0688579858A859B8520E0A5
:104FC0003FEF4FE757E40E94471118164CF56C85E8
:104FD0007D858E859F8520E030E040E251E40E948F
:104FE000A10FDC01CB01BC01CD010E94E600DC0178
:104FF000CB019F838E830FC088EC90E09D838C83D0
:105000008C819D810197F1F79D838C838E819F8197
:1050100001979F838E838E819F81009769F724C0BB
:10502000688579858A859B850E94E600DC01CB0135
:105030009F838E838E819F819B838A838A819B81BC
:105040000197F1F79B838A830FC069897A898B89DD
:105050009C890E94E600DC01CB01888B88898983CA
:1050600089818A95F1F7898380E063E040E00E94BE
:10507000582081E00E94361C0E94551C80917E03BE
:105080008230E0F32091820330918303809180038A
:1050900090918103A901481B590BCA01CC01A0E0E2
:1050A000B0E08D8F9E8FAF8FB8A38D8D9E8DAF8D0D
:1050B000B8A12AE330E040E050E0BC01CD010E94FD
:1050C0001662DA01C901898F9A8FAB8FBC8F0E945B
:1050D000631C898D9A8DAB8DBC8DBC01CD01A096D2
:1050E0000FB6F894DEBF0FBECDBFCF91DF9108950C
:1050F000DF93CF93CDB7DEB7A0970FB6F894DEBF9E
:105100000FBECDBF1D8E1E8E1F8E18A2198E1A8E39
:105110001B8E1C8E10927F03ECE4F0E01182108253
:1051200010927E0380E064E041E00E94582080E01D
:1051300090E0A0E2B1E48D8B9E8BAF8BB88F6D8930
:105140007E898F89988D2BEA3AEA4AE250E40E94E0
:10515000A10FDC01CB01898B9A8BAB8BBC8B69894E
:105160007A898B899C8920E030E040E85FE30E94E7
:10517000A71188231CF481E0888B91C069897A8902
:105180008B899C8920E030E04FE753E40E9447116F
:1051900018160CF07BC06D897E898F89988D20E070
:1051A00030E04AE754E40E949B10DC01CB018C877D
:1051B0009D87AE87BF876C857D858E859F8520E026
:1051C00030E04AEF54E40E94A10FDC01CB01888754
:1051D0009987AA87BB87688579858A859B8520E022
:1051E00030E040E85FE30E94A71188232CF481E0BF
:1051F00090E09F838E833FC0688579858A859B85F3
:1052000020E03FEF4FE757E40E94471118164CF596
:105210006C857D858E859F8520E030E040E251E4FD
:105220000E94A10FDC01CB01BC01CD010E94E60070
:10523000DC01CB019F838E830FC088EC90E09D83BF
:105240008C838C819D810197F1F79D838C838E8166
:105250009F8101979F838E838E819F81009769F73D
:1052600024C0688579858A859B850E94E600DC01DB
:10527000CB019F838E838E819F819B838A838A81CA
:105280009B810197F1F79B838A830FC069897A8993
:105290008B899C890E94E600DC01CB01888B888980
:1052A000898389818A95F1F7898380E064E040E011
:1052B0000E94582081E00E94361C0E94551C80915B
:1052C0007E038230E0F3209182033091830380914A
:1052D000800390918103A901481B590BCA01CC019D
:1052E000A0E0B0E08D8F9E8FAF8FB8A38D8D9E8D87
:1052F000AF8DB8A12AE330E040E050E0BC01CD0121
:105300000E941662DA01C901898F9A8FAB8FBC8F18
:105310000E94631C898D9A8DAB8DBC8DBC01CD0123
:10532000A0960FB6F894DEBF0FBECDBFCF91DF9130
:105330000895DF93CF93CDB7DEB7A0970FB6F8945B
:10534000DEBF0FBECDBF1D8E1E8E1F8E18A2198E02
:105350001A8E1B8E1C8E10927F03ECE4F0E01182FB
:10536000108210927E0380E065E041E00E945820A8
:1053700080E090E0A0E2B1E48D8B9E8BAF8BB88F84
:105380006D897E898F89988D2BEA3AEA4AE250E44A
:105390000E94A10FDC01CB01898B9A8BAB8BBC8B5C
:1053A00069897A898B899C8920E030E040E85FE355
:1053B0000E94A71188231CF481E0888B91C0698921
:1053C0007A898B899C8920E030E04FE753E40E9482
:1053D000471118160CF07BC06D897E898F89988DD6
:1053E00020E030E04AE754E40E949B10DC01CB014E
:1053F0008C879D87AE87BF876C857D858E859F85D1
:1054000020E030E04AEF54E40E94A10FDC01CB0120
:1054100088879987AA87BB87688579858A859B85D0
:1054200020E030E040E85FE30E94A71188232CF4DD
:1054300081E090E09F838E833FC0688579858A856F
:105440009B8520E03FEF4FE757E40E944711181675
:105450004CF56C857D858E859F8520E030E040E2AF
:1054600051E40E94A10FDC01CB01BC01CD010E94DF
:10547000E600DC01CB019F838E830FC088EC90E0B7
:105480009D838C838C819D810197F1F79D838C8313
:105490008E819F8101979F838E838E819F8100974C
:1054A00069F724C0688579858A859B850E94E60016
:1054B000DC01CB019F838E838E819F819B838A83B6
:1054C0008A819B810197F1F79B838A830FC0698949
:1054D0007A898B899C890E94E600DC01CB01888B4C
:1054E0008889898389818A95F1F7898380E065E0DD
:1054F00040E00E94582081E00E94361C0E94551C0A
:1055000080917E038230E0F3209182033091830307
:105510008091800390918103A901481B590BCA0116
:10552000CC01A0E0B0E08D8F9E8FAF8FB8A38D8DA2
:105530009E8DAF8DB8A12AE330E040E050E0BC0181
:10554000CD010E941662DA01C901898F9A8FAB8F53
:10555000BC8F0E94631C898D9A8DAB8DBC8DBC0164
:10556000CD01A0960FB6F894DEBF0FBECDBFCF9190
:10557000DF9108951F920F920FB60F9200905B007B
:105580000F9211242F933F934F935F936F937F93C9
:105590008F939F93AF93BF93EF93FF93DF93CF933B
:1055A000CDB7DEB780917E03882379F4E6E4F0E09E
:1055B00080819181909381038093800381E0809327
:1055C0007E0380E00E94361C0FC080917E038130F4
:1055D00059F4E6E4F0E08081918190938303809315
:1055E000820382E080937E03CF91DF91FF91EF9160
:1055F000BF91AF919F918F917F916F915F914F91EB
:105600003F912F910F9000925B000F900FBE0F9073
:105610001F9018951F920F920FB60F9211248F931F
:10562000DF93CF93CDB7DEB780917F038F5F8093F9
:105630007F03CF91DF918F910F900FBE0F901F903E
:105640001895DF93CF93CDB7DEB780E067E040E0F9
:105650000E94B61E80E067E041E00E945820CF9192
:10566000DF910895DF93CF930F92CDB7DEB7198204
:1056700080E067E00E94FA21898389810F90CF91B1
:10568000DF910895DF93CF93CDB7DEB782E06FEF60
:105690000E94BC2281E065E041E00E94B61E81E0EC
:1056A00066E041E00E94B61E81E067E041E00E94B2
:1056B000B61ECF91DF910895DF93CF93CDB7DEB7BC
:1056C00082E064E041E00E94B61E82E065E041E0D5
:1056D0000E94B61E82E066E041E00E94B61E82E0B3
:1056E00067E041E00E94B61E81E065E041E00E9473
:1056F000B61E81E066E041E00E94B61E81E067E0F0
:1057000041E00E94B61ECF91DF9108950F931F9341
:10571000DF93CF93CDB7DEB7C654D0400FB6F89421
:10572000DEBF0FBECDBFFE01ED5BFF4F80E090E01E
:10573000A8E4B2E480839183A283B3838E01015CE9
:105740001F4FFE01ED5BFF4F60817181828193816C
:1057500020E030E04AEF54E40E94A10FDC01CB01CD
:10576000F80180839183A283B383FE01FF96608159
:1057700071818281938120E030E040E85FE30E9404
:10578000A71188232CF481E090E09EAF8DAF46C036
:10579000FE01FF96608171818281938120E03FEF5D
:1057A0004FE757E40E944711181664F5FE01ED5BC0
:1057B000FF4F608171818281938120E030E040E27F
:1057C00051E40E94A10FDC01CB01BC01CD010E947C
:1057D000E600DC01CB019EAF8DAF0FC088EC90E0FE
:1057E0009CAF8BAF8BAD9CAD0197F1F79CAF8BAFAE
:1057F0008DAD9EAD01979EAF8DAF8DAD9EAD0097E7
:1058000069F716C0FE01FF966081718182819381E4
:105810000E94E600DC01CB019EAF8DAF8DAD9EAD49
:105820009AAF89AF89AD9AAD0197F1F79AAF89AF79
:1058300088E30E94F82D80E090E0A0EAB1E48DAB0F
:105840009EABAFABB8AF6DA97EA98FA998AD20E094
:1058500030E04AEF54E40E94A10FDC01CB0189AB98
:105860009AABABABBCAB69A97AA98BA99CA920E088
:1058700030E040E85FE30E94A71188232CF481E028
:1058800090E098AB8FA73FC069A97AA98BA99CA982
:1058900020E03FEF4FE757E40E94471118164CF500
:1058A0006DA97EA98FA998AD20E030E040E251E4D7
:1058B0000E94A10FDC01CB01BC01CD010E94E600DA
:1058C000DC01CB0198AB8FA70FC088EC90E09EA7BE
:1058D0008DA78DA59EA50197F1F79EA78DA78FA5F2
:1058E00098A9019798AB8FA78FA598A9009769F7FA
:1058F00014C069A97AA98BA99CA90E94E600DC01C1
:10590000CB0198AB8FA78FA598A99CA78BA78BA538
:105910009CA50197F1F79CA78BA78CE00E94F82D1E
:1059200080E090E0A0EAB1E48FA398A7A9A7BAA766
:105930006FA178A589A59AA520E030E04AEF54E44C
:105940000E94A10FDC01CB018BA39CA3ADA3BEA33E
:105950006BA17CA18DA19EA120E030E040E85FE337
:105960000E94A71188232CF481E090E09AA389A3D8
:105970003FC06BA17CA18DA19EA120E03FEF4FE72E
:1059800057E40E94471118164CF56FA178A589A518
:105990009AA520E030E040E251E40E94A10FDC0132
:1059A000CB01BC01CD010E94E600DC01CB019AA332
:1059B00089A30FC088EC90E098A38F8F8F8D98A15A
:1059C0000197F1F798A38F8F89A19AA101979AA3C4
:1059D00089A389A19AA1009769F714C06BA17CA142
:1059E0008DA19EA10E94E600DC01CB019AA389A3B0
:1059F00089A19AA19E8F8D8F8D8D9E8D0197F1F734
:105A00009E8F8D8F81E00E94F82D80E090E0A0EACB
:105A1000B1E4898F9A8FAB8FBC8F698D7A8D8B8D16
:105A20009C8D20E030E04AEF54E40E94A10FDC019D
:105A3000CB018D8B9E8BAF8BB88F6D897E898F89C3
:105A4000988D20E030E040E85FE30E94A7118823B2
:105A50002CF481E090E09C8B8B8B3FC06D897E891C
:105A60008F89988D20E03FEF4FE757E40E94471160
:105A700018164CF5698D7A8D8B8D9C8D20E030E069
:105A800040E251E40E94A10FDC01CB01BC01CD0139
:105A90000E94E600DC01CB019C8B8B8B0FC088EC55
:105AA00090E09A8B898B89899A890197F1F79A8B73
:105AB000898B8B899C8901979C8B8B8B8B899C898B
:105AC000009769F714C06D897E898F89988D0E942F
:105AD000E600DC01CB019C8B8B8B8B899C89988B9E
